:020000040800F2
:10000000D0090020B501000891020008890200080B
:100010008D0200088102000895030008000000001E
:10002000000000000000000000000000990200082D
:100030008502000800000000950200089D020008EB
:10004000CF010008CF010008CF010008CF01000850
:10005000CF010008CF010008CF010008CF01000840
:10006000CF010008CF010008CF010008CF01000830
:10007000CF010008CF010008CF010008CF01000820
:10008000CF010008CF010008CF010008CF01000810
:10009000CF010008CF010008CF010008CF01000800
:1000A000CF010008CF010008CF010008CF010008F0
:1000B000CF0100088D030008CF010008CF01000820
:1000C000CF010008CF010008CF010008CF010008D0
:1000D000CF010008CF010008CF010008CF010008C0
:1000E000CF010008CF010008CF010008CF010008B0
:1000F000CF010008CF010008CF010008CF010008A0
:10010000CF010008CF010008CF010008CF0100088F
:10011000CF010008CF010008CF010008CF0100087F
:10012000CF010008CF010008CF010008CF0100086F
:10013000000000000000000000000000CF010008E7
:10014000CF010008CF010008CF0100080000000027
:1001500000000000CF010008CF010008CF01000817
:10016000CF010008CF0100080000000000000000DF
:10017000CF010008CF0100080000000000000000CF
:100180000000000000000000CF010008CF010008BF
:10019000CF010008CF010008CF01000800000000D7
:1001A000DFF80CD000F03CF80048004721060008BA
:1001B000D00900200648804706480047FEE7FEE7D2
:1001C000FEE7FEE7FEE7FEE7FEE7FEE7FEE7FEE707
:1001D000A1020008A101000840EA01039B0703D027
:1001E00009E008C9121F08C0042AFAD203E011F876
:1001F000013B00F8013B521EF9D27047D2B201E038
:1002000000F8012B491EFBD270470022F6E710B51B
:1002100013460A4604461946FFF7F0FF204610BD74
:10022000064C074D06E0E06840F0010394E8070043
:1002300098471034AC42F6D3FFF7B6FF3C1E0008D7
:100240005C1E000830B58C1810F8012B12F00F035B
:1002500001D110F8013B120906D110F8012B03E07F
:1002600010F8015B01F8015B5B1EF9D101E001F8B8
:10027000013B521EFBD1A142E6D3002030BD00005D
:10028000FFE7FEE770470000FFE7FEE7FFE7FEE756
:100290007047000070470000704700007047000082
:1002A00080B582B04EF68851CEF20001086840F465
:1002B0007000086041F20001C4F20201086840F0D9
:1002C00001000860FFE741F20000C4F2020000688C
:1002D0008007002801D4FFE7F5E7FFE741F20401BA
:1002E000C4F20201086840F080000860002001901C
:1002F000FFE70198FF2805D8FFE7FFE701980130E5
:100300000190F6E741F20401C4F20201086840F0EE
:100310009000086000200190FFE70198FF2805D8B1
:10032000FFE7FFE7019801300190F6E7FFE741F2B0
:100330000402C4F20202106820F00300106041F2CF
:100340000001C4F2020108684FF6FF73CEF6F623EF
:100350001840086041F20803C4F202034FF47F0022
:10036000186000200090106041F22C02C4F20202DA
:100370001060086820F48020086000F053FD0099A8
:100380004FF0006000F00AFA02B080BD80B501F0C5
:10039000FFF980BDFFE7FEE784B003908DF80B10F6
:1003A0008DF80A20039A40F20041C4F20101086866
:1003B00090430860039A40F20441C4F201010868C6
:1003C00090430860039A40F20841C4F201010868B2
:1003D00090430860039A40F20C41C4F2010108689E
:1003E000904308609DF80B000146019120B1FFE7A2
:1003F0000198012809D011E0039A40F20041C4F2AB
:10040000010108681043086009E0039A40F20441C2
:10041000C4F2010108681043086000E0FFE79DF89E
:100420000A0001460091032838D80099DFE801F05E
:1004300002132435039A40F20841C4F2010108680E
:1004400010430860039A40F20C41C4F201010868AD
:100450009043086023E0039A40F20841C4F201018E
:10046000086890430860039A40F20C41C4F201010D
:1004700008681043086012E0039A40F20841C4F291
:100480000101086810430860039A40F20C41C4F26D
:10049000010108681043086001E0FFE7FFE704B0CE
:1004A0007047000081B00090009A40F20041C4F211
:1004B000010108681043086001B0704781B00090E6
:1004C000009840F21441C4F20101086001B0704785
:1004D00080B582B001908DF80310019840F2401170
:1004E000C2F2000108609DF8030000F011F8FFE778
:1004F00040F24010C2F20000006808B1FFE7F7E7E1
:1005000040F20040C4F2000000F09AFC02B080BD4E
:1005100080B588B08DF81F0040F20040C4F20000A2
:10052000029000F08DFC0298012100F025FD9DF85D
:100530001F00022803D1FFE7062005900AE09DF87E
:100540001F00012804D1FFE741F65730059000E075
:10055000FFE7FFE740F20A10C2F200000088ADF8A2
:100560000C000020ADF80E00ADF81000ADF818003A
:100570008DF81A0040F20040C4F20000019003A977
:1005800000F072FC01980121009100F009FD019832
:1005900000F04CFC0099019800F0F8FC019800F084
:1005A00059FC08B080BD000083B0029001918DF825
:1005B000032000208DF80200FFE79DF802009DF85F
:1005C0000310884229DAFFE70298000F092809D8AA
:1005D000FFE70298000F303001999DF8022001F8E2
:1005E000120009E00299372000EB117001999DF883
:1005F000022001F81200FFE7029800010290019822
:100600009DF8021000EB410100204870FFE79DF8C3
:10061000020001308DF80200CFE703B07047000000
:1006200080B582B00020019000F0C2FF01F0A0F878
:1006300040F28810C2F2000040F27801C2F20001DC
:1006400040F20C12C2F2000201F002FB00F076FF51
:10065000FFE7FEE780B584B08DF80F008DF80E102F
:100660008DF80D2000200290019000904EF60C5065
:10067000CEF20000006800F4E060B0F5E06F05D154
:10068000FFE700200190042000904AE04EF60C5055
:10069000CEF20000006800F4E060B0F5C06F05D154
:1006A000FFE7012001900320009039E04EF60C5046
:1006B000CEF20000006800F4E060B0F5A06F04D155
:1006C000FFE702200190009029E04EF60C50CEF298
:1006D0000000006800F4E060B0F5806F05D1FFE72E
:1006E000032001900120009018E04EF60C50CEF24D
:1006F0000000006800F4E060B0F5407F05D1FFE73E
:10070000042001900020009007E04FF4A06000F06A
:1007100037F8022001900090FFE7FFE7FFE7FFE7CF
:10072000FFE79DF80E000199C1F104018840029095
:100730009DF80D000099C1F104020F21D140014044
:1007400002980843029002980001029002989DF8D6
:100750000F104EF20042CEF2000288549DF80F2096
:1007600002F01F01012088404EF20011CEF200017C
:1007700041EAD20121F00301086004B080BD00000D
:1007800081B0009000980021C0F2FA5108434EF663
:100790000C51CEF20001086001B0704782B00190A8
:1007A0000091019800994FF68072C1F6FF721140D6
:1007B00008434EF60851CEF200010860BFF34F8F98
:1007C00002B0704780B582B001908DF80310019897
:1007D000812101F091F90198012101F08DF90020AA
:1007E00002B080BD82B001908DF80310002002B0ED
:1007F0007047000080B584B003908DF80B1003980B
:1008000041F67051C0F600010191123101F0CAF9B0
:1008100001990398193101F0C5F9039840F2441287
:10082000C2F200020121402301F090F9002004B03F
:1008300080BD000082B001908DF80310002002B04E
:100840007047000080B586B0049003910498D030C2
:100850000290039840780146019140B1FFE701986A
:1008600001280ED0FFE70198022814D01DE002995C
:1008700040F20000C2F200008860029967204861DF
:1008800017E0029940F27400C2F2000088600299F9
:10089000012048610DE0049840F24412C2F20002C7
:1008A0000121402301F052F903E002208DF81700E6
:1008B00003E000208DF81700FFE79DF8170006B051
:1008C00080BD00009CB08DF86F000020199014903E
:1008D00040F20671C0F60811099140F20121C0F200
:1008E00003410891079006900591049003910290AE
:1008F00041F20400C4F202000068C0F381001A90C3
:100900001A98019040B1FFE7019801280AD0FFE74B
:10091000019802280CD0B9E041F20020C0F27A0020
:100920001890B9E047F64000C0F27D101890B3E08F
:1009300041F20400C4F20200006800F48030139019
:100940001398B0F5803F54D1FFE741F22C00C4F278
:100950000200006800F080401290129830B9FFE762
:1009600047F64000C0F27D100F9005E046F60040CB
:10097000C0F2DC200F90FFE741F22C00C4F202002D
:10098000006800F4803011901198B0F5803F21D1BB
:10099000FFE741F22C00C4F202000168CAB2012153
:1009A00001EB12110B91006800F47061022000EB62
:1009B00011200A900A98112803D1FFE714200A9009
:1009C000FFE70F980B99B0FBF1F00A9900FB01F0DB
:1009D0000F90FFE741F22C00C4F20200006800F023
:1009E0000F0001300C900C990F98B0FBF1F00F90B4
:1009F00005E040F60010C0F23D000F90FFE741F225
:100A00000400C4F202000168C1F383411091006840
:100A10008000002805D5FFE7109840F010001090E6
:100A2000FFE741F20400C4F2020000684000002821
:100A300005D5FFE7109840F020001090FFE71098D0
:100A40000E2804D8FFE71098023010900CE01098A0
:100A50000F2808D3FFE71098402804D8FFE7109824
:100A600001301090FFE7FFE70F98109900FB01F0AD
:100A7000189010980F2808D1FFE70F9901EB41005B
:100A8000400000EB51001890FFE705E041F2002024
:100A9000C0F27A001890FFE741F20400C4F20200AD
:100AA0000168C9B209090E910E9A06A9895C0D91D7
:100AB00018990D9AD14017910168C1F302210E9146
:100AC0000E9A04A9895C0D9117990D9AD14016913F
:100AD0000068C0F3C2200E900E9902A8405C0D90F1
:100AE00017980D99C84015909DF86F000146009128
:100AF00004284ED80099DFE801F00306090C0F0026
:100B00001898199046E01798199043E01698199094
:100B100040E0159819903DE041F2D400C4F2020083
:100B20000068800718B9FFE7159814902EE041F28D
:100B3000D400C4F20200006800F00300012803D1D1
:100B4000FFE71898149020E041F2D400C4F20200AC
:100B5000006800F00300022804D1FFE74FF40040D2
:100B6000149011E041F2D400C4F20200006800F0D9
:100B70000300032806D1FFE741F20020C0F27A000B
:100B8000149000E0FFE7FFE7FFE7FFE714981990F4
:100B900000E0FFE719981CB07047000081B0ADF885
:100BA0000200BDF8020000F01F02012101FA02F369
:100BB000810941F20002C4F20202885818438850A9
:100BC00001B0704782B0019041F20401C4F2020109
:100BD00008680090009820F4400000900098019A66
:100BE0001043086002B0704780B586B00590059844
:100BF0000078062827D0FFE74FF2E870C1F6FF70B3
:100C0000006804904FF2EC70C1F6FF70006803902A
:100C10004FF2F070C1F6FF700068029002990498DC
:100C200008440490049868B1FFE7049805990231DC
:100C30000822FFF7B9FC0398059912310422FFF747
:100C4000B3FCFFE711E042F20010C4F202000068BA
:100C50000190019840B1FFE7019805994880BDF8DF
:100C6000060005998880FFE7FFE706B080BD000019
:100C700084B000200390029041F20001C4F202010E
:100C8000086840F480300860FFE703980130039063
:100C900041F20000C4F20200006800F4003002904B
:100CA000FFE702990020019041B9FFE703984FF652
:100CB000FF71401A18BF01200190FFE70198C0079B
:100CC0000028E2D1FFE741F20000C4F20200006810
:100CD0008003002802D4FFE7FFE7FEE742F20001AD
:100CE000C4F202010868042262F30200086041F2C3
:100CF0001C01C4F20201086840F08050086041F213
:100D00000401C4F2020100910868086008680860E4
:100D1000086840F48060086008684FF6FF72C9F602
:100D2000C3721040086008680022C4F22502104314
:100D3000086041F22C01C4F2020108684FF200027F
:100D4000CBF6FE7210400860086840F24962C0F2BB
:100D500001021043086041F20001C4F20201086878
:100D600040F080600860FFE741F20000C4F202003A
:100D700000680001002801D4FFE7F5E741F2000117
:100D8000C4F20201086840F080700860FFE741F299
:100D90000000C4F2020000688001002801D4FFE7CF
:100DA000F5E747F20001C4F20001086840F4803022
:100DB0000860FFE747F20400C4F200000068C003C7
:100DC000002801D4FFE7F5E747F20001C4F2000173
:100DD000086840F400300860FFE747F20400C4F2FE
:100DE000000000688003002801D4FFE7F5E741F226
:100DF0000401C4F20201086820F0030008600868DA
:100E000040F002000860FFE741F20400C4F2020073
:100E1000006800F00C00082801D0FFE7F4E704B0F8
:100E20007047000080B5FFF723FF80BD81B00090C0
:100E30000099086840F08000086001B07047000029
:100E400081B000900099086820F00100086001B0AE
:100E50007047000081B000900099086840F00100E0
:100E6000086001B07047000082B0019000910098C6
:100E7000008801998862019842F60041C4F201019C
:100E8000884225D0FFE70198B0F1804F20D0FFE7DE
:100E9000019840F20041C4F20001884218D0FFE7F7
:100EA000019840F60001C4F20001884210D0FFE72B
:100EB000019840F60041C4F20001884208D0FFE7E3
:100EC000019843F20041C4F20101884216D1FFE7C4
:100ED0000199086820F0700008600098408800F0D0
:100EE000600201990868104308600098808800F04B
:100EF00010020199086810430860FFE700988068B5
:100F00000199C862019841F20001C4F200018842CF
:100F100016D0FFE7019841F20041C4F20001884277
:100F20000ED0FFE70199086820F44070086000982F
:100F3000808900F440720199086810430860FFE757
:100F4000019842F60041C4F20101884208D0FFE74F
:100F5000019843F20041C4F20101884205D1FFE744
:100F60000098807B01990863FFE70199486940F088
:100F70000100486102B0704782B001900091009A70
:100F80000199C8689043C86002B0704782B0019070
:100F90000091009A0199C8681043C86002B0704778
:100FA00082B0019000910098C0430199086102B09D
:100FB0007047000084B0029001910298C0680199C6
:100FC00008400090029800690199084207D0FFE7A5
:100FD000009820B1FFE701208DF80F0003E000200A
:100FE0008DF80F00FFE79DF80F0004B07047000078
:100FF00080B5B6B0359034913599002003900871D2
:10100000359A02215170359A4FF0A041D160359A3E
:101010000C219170359A0621D17035994871359A15
:1010200001211171359A91713599C87134980090E8
:1010300004A80190BC210291FFF7E7F800980199FC
:10104000029A359BDB680493359BDB6803F50063EC
:101050000593359BDB6803F580630693359BDB685E
:1010600003F588632293359BDB6803F56063329355
:10107000FFF7B2F803988DF8CF00FFE79DF8CF0097
:101080003599C97888421FDAFFE73598C0689DF81E
:10109000CF2000EB421000F51060349901EB820183
:1010A000C8603598C0689DF8CF2000EB421000F56D
:1010B0003060349901EB82014862FFE79DF8CF0070
:1010C00001308DF8CF00D9E700208DF8CF00FFE781
:1010D0009DF8CF003599897888421FDAFFE7359867
:1010E000C0689DF8CF2000EB421000F5A060349955
:1010F00001EB8201C8633598C0689DF8CF2000EBF2
:10110000023000F58050349901EB8201C867FFE797
:101110009DF8CF0001308DF8CF00D9E7002036B020
:1011200080BD000080B584B0DDF818C00393029242
:101130000191009006980168886820F0010088609D
:101140009DF80500022827D1FFE706980168886B03
:1011500020F48030886306980168C86820F0600039
:10116000C8609DF8060038B1FFE706980168886BF3
:1011700040F480108863FFE706980168C86820F48F
:101180000010C86006980168C86820F48010C86024
:10119000069800F06FF857E09DF80500012828D167
:1011A000FFE706980168C86840F02000C86006980C
:1011B00000F060F8069801680020886306980168CE
:1011C000086840F0C000086006980168886B40F429
:1011D000803088639DF8060038B1FFE70698016803
:1011E000886B40F480108863FFE7142000F0D6F984
:1011F00029E09DF8050020BBFFE706980168C86854
:1012000040F04000C860069800F034F80698016885
:10121000086840F0C000086006980168886B40F4D8
:10122000803088639DF8060038B1FFE706980168B2
:10123000886B40F480108863FFE7142000F0AEF95B
:1012400000E0FFE7FFE7FFE79DF8040001280DD16C
:10125000FFE706980168886820F01E0088600698FD
:101260000168886840F02A008860FFE7002004B029
:1012700080BD000080B582B00190019801680869C6
:1012800040F001000861FFE7019800680069C007AD
:1012900008B1FFE7F8E7032000F00CFC02B080BDC6
:1012A00081B0009000984169486820F002004860D1
:1012B00001B0704781B0009000984169486840F0E3
:1012C0000200486001B0704780B582B0019001987B
:1012D0000169C86820F0C040C86001980169C86809
:1012E00040F08040C8600198D0F8C8100020086025
:1012F00001984169086820F4C0500860019841696C
:101300000868086001984169086820F003000860D7
:1013100001984079012805D1FFE7019841690868E3
:1013200008600CE00198407938B9FFE701984169FD
:10133000086840F00100086000E0FFE7FFE701985F
:1013400010304FF4007100F0B9F900208DF803005F
:10135000FFE79DF80300052813D8FFE70198103038
:101360009DF8031040F26802C2F2000232F8112028
:1013700000F0B0F9FFE79DF8030001308DF803009D
:10138000E7E701981030102100F078FB0198103049
:1013900000F07EF9019841690020086101994969CE
:1013A000486101994A694FF0FF319161019949699A
:1013B000C8618DF80300FFE79DF803000199C97823
:1013C000884263DAFFE701989DF8031000EB810083
:1013D000C0690068C00F58B1FFE701989DF803107D
:1013E00000EB8100C169086840F09040086008E0A7
:1013F00001989DF8031000EB8100C169002008608E
:10140000FFE701989DF8031000EB8100C1690020FF
:10141000086101989DF8031000EB8100C169FF206D
:10142000886001989DF8031000EB8100406B006814
:10143000C00F58B1FFE701989DF8031000EB810041
:10144000416B086840F09040086008E001989DF802
:10145000031000EB8100416B00200860FFE701985A
:101460009DF8031000EB8100416B0020086101989A
:101470009DF8031000EB8100416BFF208860FFE7BF
:101480009DF8030001308DF8030095E7019841694C
:10149000086940F010000861019800F013F8019805
:1014A000007A01280BD1FFE70199002081F81C0484
:1014B000019801690320C1F200004865FFE70020A0
:1014C00002B080BD81B00090009801694FF0FF30FC
:1014D0004860009801696FF0804048610098016998
:1014E00040F60000C8F2000088610098007938B921
:1014F000FFE700980169886940F010008861FFE704
:1015000000980169886943F20802C0F23C02104366
:1015100088610098007A012807D1FFE700980169E7
:10152000886940F000608861FFE700980169886879
:1015300040F001008860002001B0704780B584B0A1
:101540004FF4A060FFF71CF9432002210022039210
:10155000FFF780F840F21C70FFF720FB4FF480206B
:101560000190FEF7ABFF0198039A1146FEF714FFB6
:101570000198FEF797FF039A2A2001210291FFF7B5
:1015800069F80299039A4A20FFF764F80299039ACE
:101590004B20FFF75FF804B080BD000080B582B03B
:1015A000019001980121FEF793FF02B080BD000079
:1015B00080B582B00020FFF785F90190019846F6CA
:1015C0000041C0F2DC2188420ED1FFE740F28411D5
:1015D000C2F200014FF48000086040F20A11C2F22A
:1015E00000010320088045E001984AF20021C0F282
:1015F0004A4188420DD1FFE740F28411C2F2000156
:101600000020086040F20A11C2F2000105200880A3
:101610002FE0019840F60061C0F2277188420ED198
:10162000FFE740F28411C2F200014FF400000860AD
:1016300040F20A11C2F200010920088018E0019866
:1016400047F60021C0F6032188420FD1FFE740F2A0
:101650008411C2F200010020C8F24000086040F28C
:101660000A11C2F200010B20088000E0FFE7FFE74B
:10167000FFE7FFE740F28410C2F200000068FFF7C6
:10168000A1FA40F20C50FFF789FA02B080BD0000C9
:1016900080B582B001900198016810200861FFE7D1
:1016A000019800680069C006002801D5FFE7F7E748
:1016B000032000F0FFF9002002B080BD82B001904D
:1016C000ADF80210BDF8020001990968486202B045
:1016D0007047000084B003908DF80B10ADF808201F
:1016E00003980068406A01909DF80B0048B9FFE735
:1016F000BDF80810019840EA014003990968886222
:1017000033E003980068816A019800EB1140019072
:1017100000208DF80300FFE79DF803009DF80B10F3
:101720000139884213D2FFE7039800689DF803103F
:1017300000EB8100D0F80411019800EB11400190FA
:10174000FFE79DF8030001308DF80300E4E7BDF8E2
:101750000810019840EA0140039909689DF80B20A0
:1017600001EB8201C1F80001FFE704B070470000FF
:1017700080B54FF4A060FFF703F81D20012100227F
:10178000FEF768FF40F20170FFF708FA80BD000025
:1017900080B540F20040C4F200000121FFF70AFCCE
:1017A000F0B1FFE740F20040C4F200000121FFF772
:1017B000F7FB40F24010C2F20000006840B1FFE7C2
:1017C00040F24011C2F2000108680138086006E0EA
:1017D00040F20040C4F20000FFF732FBFFE7FFE7F2
:1017E00080BD000085B0049003910020029001901C
:1017F0000399097801F00F018DF803100399097816
:10180000B0EBD11F0DD0FFE704989DF8031000EB5B
:101810008100C06902909DF803100120884001906A
:101820000EE004989DF8031000EB8100406B0290DD
:101830009DF8030000F11001012088400190FFE7AE
:10184000029800680004002833D4FFE70299086872
:101850004FF60002CFF63342104008609DF80300B7
:1018600078B9FFE704984069806800F0060141F606
:10187000D640C0F60000425C029908681043086038
:1018800006E0039882880299086810430860FFE721
:101890000398407880049DF8031040EA8150029933
:1018A0000A68104348F20002C1F2000210430860C7
:1018B000FFE79DF80300012807D1FFE7019A04988C
:1018C0004169C86B1043C86306E0019A04984169F6
:1018D000C8691043C861FFE7002005B070470000E9
:1018E00084B003900291002001900299097801F0E0
:1018F0000F018DF8031002990978B0EBD11F10D0B9
:10190000FFE79DF8031001208840019003989DF89F
:10191000031000EB8100C169086820F400400860F2
:1019200011E09DF8030000F11001012088400190B2
:1019300003989DF8031000EB8100416B086820F4C8
:1019400000400860FFE79DF80300012807D1FFE78A
:10195000019A03984169C86B9043C86306E0019AF5
:1019600003984169C8699043C861FFE7002004B04B
:101970007047000086B00590049100208DF80F009C
:101980000498007800F00F008DF80E0005989DF87F
:101990000E1000EB8100406B0068029005989DF8E6
:1019A0000E1000EB8100406B00690190019800F07F
:1019B000604001900498C06820B1FFE79DF80E00D8
:1019C00050B9FFE704988188019808430190019875
:1019D00040F40020019015E00499C8688988084403
:1019E0000138B0FBF1F000900099019840EAC14045
:1019F000019000980499898800FB01F1019808433F
:101A00000190FFE7019805999DF80E2001EB8201F6
:101A1000496B08610598007901280AD1FFE704980D
:101A2000806905999DF80E2001EB8201496B4861A0
:101A3000FFE70498407801280FD1FFE70498C078A9
:101A400028B1FFE7029840F00050029004E00298AD
:101A500040F080500290FFE7FFE7029840F004401A
:101A60000290029805999DF80E2001EB8201496BC6
:101A700008609DF80F0006B07047000080B582B086
:101A800001908DF803109DF803008001203001992A
:101A900009680861FFE7019800680069800600286E
:101AA00001D5FFE7F7E7032000F004F8002002B0BB
:101AB00080BD000080B582B0019001980221FEF740
:101AC00007FD02B080BD000080B582B00190019892
:101AD000FFF7E6FB0320FFF761FD02B080BD0000C9
:101AE00080B582B001900198FFF7E4FB0320FFF777
:101AF00055FD02B080BD000080B584B003908DF824
:101B00000B109DF80B100020B0EBD11F0CD0FFE79D
:101B100003989DF80B1001F07F01C1EBC10100EBB0
:101B20008100D03001900AE003989DF80B10C1EBC2
:101B3000C10100EB810000F51D700190FFE70398E3
:101B40000199FFF7CDFE002004B080BD80B586B0BE
:101B500005908DF813100392029305989DF81310C9
:101B600001F07F01C1EBC10100EB810000F51D70A8
:101B7000019003980199886002980199C8600199C1
:101B80000020086105980079012804D1FFE7039837
:101B900001998861FFE705980199FFF7EBFE0020A6
:101BA00006B080BD80B584B0039002910298807821
:101BB0008DF8030002988088ADF800009DF80310AE
:101BC0000020B0EBD11F11D0FFE703989DF8031060
:101BD00001F07F01C1EBC10100EB8100D030019029
:101BE0000199087840F0800008700FE003989DF894
:101BF0000310C1EBC10100EB810000F51D700190E5
:101C00000199087800F07F000870FFE79DF8032035
:101C10000199087802F00F0200F0F00010440870FB
:101C2000BDF80000019988800298C07800F0030197
:101C300041F6DC40C0F6000050F8210001994870E0
:101C400003980199FFF7CEFD002004B080BD00008D
:101C500080B584B003900291019202980399C1F873
:101C6000300401980399C1F834040398D0F8300483
:101C7000C068C068FEF7B8FF039800F11001FFF7D5
:101C8000B7F9039B03F1100C186859689A68DB6870
:101C9000EE46CEF800C0FFF745FA0398FFF720FFA5
:101CA0000398FFF711FB0398FFF70EFF039901203C
:101CB00081F8CE0004B080BD02E008C8121F08C140
:101CC000002AFAD170477047002001E001C1121FBD
:101CD000002AFBD170470000030000000000000054
:101CE000010000000200000003000000160347008E
:101CF00069006700610044006500760069006300C8
:101D0000650000000000000000000000000000006E
:101D100000000000000000000000000000000000C3
:101D200000000000000000000000000000000000B3
:101D300000000000000000000000000000000000A3
:101D40000000000000000000000000000000000093
:101D50000000000000000000000000000000000083
:101D60000000000000000000000000000000000073
:101D700009022000010100A032090400000207014D
:101D80000200070581024000000705010240000033
:101D90001201000200000040E9288D02000101024A
:101DA00003010000220347004400330032002D00ED
:101DB0005500530042005F005000720069006E0041
:101DC00074006500720000000000000000000000C8
:101DD0000000000000000000000000000000000003
:101DE00000000000000000000000000000000000F3
:101DF00000000000000000000000000000000000E3
:101E000000000000000000000000000000000000D2
:101E100000000000000000000000000000000000C2
:101E2000000000000000000004030904281E000850
:101E3000EC1C0008A41D000888000020601E00089B
:101E4000000000204001000044020008001F0008BC
:101E50004001002090080000C81C0008000000009D
:101E6000906D00674D414E55464143545552455281
:101E70003A47494741204445564943452D3B434F46
:101E80004D4D414E44205345543A50434C2C4D50F7
:101E90004C3B4D4F44454C3A4C6173657242656111
:101EA0006D3F3B434F4D4D454E543A476F6F642055
:101EB000213B41435449564520434F4D4D414E44EB
:101EC000205345543A50434C3B0080008001421857
:101ED00059901D0008701D000807812C1E00081A6B
:101EE000036205DDF5070008C5070008450800087E
:101EF0000911E5070008350800080000000000008F
:04000005080001A14D
:00000001FF
