:020000040800F2
:10000000B8070020B5010008650200085D0200087D
:1000100061020008550200086503000800000000A6
:100020000000000000000000000000006D02000859
:10003000590200080000000069020008CD01000814
:10004000CF010008CF010008CF010008CF01000850
:10005000CF010008CF010008CF010008CF01000840
:10006000CF010008CF010008CF010008CF01000830
:10007000CF010008CF010008CF010008CF01000820
:10008000CF010008CF010008CF010008CF01000810
:100090005D030008CF010008CF010008CF01000870
:1000A000CF010008CF010008CF010008CF010008F0
:1000B000CF010008CF010008CF010008CF010008E0
:1000C000CF010008CF010008CF010008CF010008D0
:1000D000CF010008CF010008CF010008CF010008C0
:1000E000CF010008CF010008CF010008CF010008B0
:1000F000CF010008CF010008CF010008CF010008A0
:10010000CF010008CF010008CF010008CF0100088F
:10011000CF010008CF010008CF010008CF0100087F
:10012000CF010008CF010008CF010008CF0100086F
:10013000000000000000000000000000CF010008E7
:10014000CF010008CF010008CF0100080000000027
:1001500000000000CF010008CF010008CF01000817
:10016000CF010008CF0100080000000000000000DF
:10017000CF010008CF0100080000000000000000CF
:100180000000000000000000CF010008CF010008BF
:10019000CF010008CF010008CF01000800000000D7
:1001A000DFF80CD000F018F8004800474D0F0008A9
:1001B000B80700200648804706480047FEE7FEE7EC
:1001C000FEE7FEE7FEE7FEE7FEE7FEE7FEE7FEE707
:1001D00071020008A1010008064C074D06E0E06826
:1001E00040F0010394E8070098471034AC42F6D37E
:1001F000FFF7DAFF4C2A00086C2A000870B58C184B
:1002000010F8015B15F0070301D110F8013B2A112A
:1002100006D110F8012B03E010F8016B01F8016B17
:100220005B1EF9D12B0705D40023521E0DD401F813
:10023000013BFAE710F8013BCB1A921C03E013F8DC
:10024000015B01F8015B521EF9D5A142D8D3002011
:1002500070BD0000FFE7FEE770470000FFE7FEE724
:10026000FFE7FEE77047000070470000704700009E
:1002700080B582B04EF68851CEF20001086840F495
:100280007000086041F20001C4F20201086840F009
:1002900001000860FFE741F20000C4F202000068BC
:1002A0008007002801D4FFE7F5E7FFE741F20401EA
:1002B000C4F20201086840F080000860002001904C
:1002C000FFE70198FF2805D8FFE7FFE70198013015
:1002D0000190F6E741F20401C4F20201086840F01F
:1002E0009000086000200190FFE70198FF2805D8E2
:1002F000FFE7FFE7019801300190F6E7FFE741F2E1
:100300000402C4F20202106820F00300106041F2FF
:100310000001C4F2020108684FF6FF73CFF6F663DE
:100320001840086041F20803C4F202034FF41F00B2
:10033000186000200090106041F22C02C4F202020A
:100340001060086820F48020086001F043FA0099EA
:100350004FF0006000F0DAFE02B080BD80B502F020
:1003600065F980BDFFE7FEE784B002908DF80710C5
:1003700000920298006E806870B1FFE70298006EEC
:1003800081688878C97840EA01200099088002983D
:10039000006E8068039004E00099002008800390BC
:1003A000FFE7039804B0704783B002908DF8071000
:1003B00000920298006E41688878C97840EA01206E
:1003C000009908800298006E406803B070470000F2
:1003D00083B002908DF8071000920298006E0068BA
:1003E0000078009908800298006E006803B070479A
:1003F00080B582B001908DF803100198C07C38B1AF
:10040000FFE7019801F0EAF901990020C874FFE7BD
:100410000198807803280AD1FFE70198406E0069AF
:1004200028B1FFE70198416E09698847FFE7019805
:10043000007D012804D1FFE7019801F007FA09E0E7
:100440000198007D032804D1FFE701990020087579
:10045000FFE7FFE70198407840B1FFE70198816E20
:10046000C9688847019900204870FFE702B080BD45
:1004700080B584B003908DF80B1003988078032822
:100480000AD1FFE70398406E406928B1FFE703985F
:10049000416E49698847FFE70398007D022804D12F
:1004A000FFE7039801F0C2F918E00398007D0428E3
:1004B00012D1FFE703989DF80B1001EB410100EB0F
:1004C000810018300023019319461A4601F0FEF905
:1004D00001980399087500E0FFE7FFE704B080BDCD
:1004E00080B584B003908DF80B1001208DF80A00C0
:1004F0000398816E0B6B0B30002211469847ADF8C4
:100500000800BDF80800082804D0FFE7039801F0B0
:10051000ABF949E00398C07A00F060000146019110
:1005200040B1FFE7019820280CD0FFE70198402850
:1005300010D017E0039800F10B0102F045FA8DF896
:100540000A0010E0039800F10B0101F0F5F98DF8B5
:100550000A0008E0039800F10B0102F059FA8DF847
:100560000A0000E0FFE79DF80A00C8B9FFE703981A
:10057000B0F8110020B9FFE7039801F057F90EE039
:100580000398C07A0006002804D5FFE7039801F01D
:1005900031F903E0039801F03BF9FFE7FFE703E0DF
:1005A000039801F061F9FFE704B080BD80B586B023
:1005B0000490039100208DF80B000398007800F060
:1005C00003000146019140B1FFE7019801284DD099
:1005D000FFE70198022814D049E004988078023897
:1005E00001280CD8FFE703984088012806D1FFE7CF
:1005F0000499002008728DF817003DE000E0FFE745
:1006000036E0039880888DF80B00049880780328E2
:100610002BD1FFE79DF80B0000F07F00012824DCC0
:10062000FFE703984088F8B9FFE79DF80B00D8B1C1
:10063000FFE79DF80B00802816D0FFE704989DF88F
:100640000B1001F083FF70B1FFE704989DF80B10C9
:1006500001F0E4F90498416ECA68039990470020BC
:100660008DF8170008E0FFE7FFE701E000E0FFE793
:1006700001208DF81700FFE79DF8170006B080BD38
:1006800080B584B00390029101208DF80700039893
:10069000807801460091022804D0FFE700980328E3
:1006A00009D011E00398007820B9FFE700208DF809
:1006B0000700FFE709E00398007820B1FFE700207A
:1006C0008DF80700FFE700E0FFE79DF8070040B95D
:1006D000FFE7039901F1300001231A4601F0E2F827
:1006E000FFE79DF8070004B080BD000080B588B02A
:1006F0000790069100208DF817008DF81600012054
:100700008DF815000798303004900698007800F0B6
:1007100003000146039150B1FFE70398012800F060
:100720007580FFE70398022800F0788077E006984C
:10073000C0788DF81700069840888DF816009DF84F
:1007400017000138014602910E285DD80299DFE8B2
:1007500001F008243750505050505B5B5B5B5B5B93
:1007600051009DF8171040F28C20C2F2000000EBFF
:10077000810050F8043C07989DF81610049A08323E
:100780009847049948600698C088402804D1FFE73C
:10079000049908200881FFE737E09DF8171040F220
:1007A0008C20C2F2000000EB810050F8043C079856
:1007B0009DF81610049A083298470499486024E07E
:1007C0009DF81600072813DCFFE79DF8171040F28C
:1007D0008C20C2F2000000EB810050F8043C079826
:1007E0009DF81610049A0832984704994860FFE76C
:1007F0000BE00AE007989DF81610049A0832FFF7FC
:10080000B3FD0499486000E0FFE709E00798416EF6
:10081000CA68069990478DF8150001E000E0FFE7EF
:100820000498008978B3FFE70698C08858B3FFE7BB
:10083000049800890699C988884204DAFFE7049879
:100840000089019003E00698C0880190FFE70198B5
:1008500004990881049800890799B1F81110884219
:100860000DDAFFE7049802894188B2FBF1F000FB42
:10087000112020B9FFE707990120C874FFE7002085
:100880008DF81500FFE79DF8150008B080BD000049
:1008900080B584B002900191029880780146009161
:1008A000012808D0FFE70098022805D0FFE700984C
:1008B000032802D013E013E012E00198007968B930
:1008C000FFE7029901F13000496E013101231A4618
:1008D00000F0E8FF00208DF80F0005E000E0FFE7E2
:1008E00001208DF80F00FFE79DF80F0004B080BDD8
:1008F00080B584B003900291029880888DF807003B
:1009000001208DF806000298007800F003000146EF
:10091000009140B1FFE70098012836D0FFE700982A
:10092000022840D06EE003988078023801282AD847
:10093000FFE70398007938B1FFE740F2F021C2F2F7
:1009400000010120087006E040F2F021C2F200012F
:1009500000200870FFE70398007A48B1FFE740F2F3
:10096000F021C2F20001087840F00200087006E0B1
:1009700040F2F021C2F2000100200870FFE70020E1
:100980008DF8060000E0FFE73DE00398807803283B
:1009900008D1FFE79DF8070020B9FFE700208DF898
:1009A0000600FFE72FE003988078032829D1FFE7AE
:1009B0009DF807000006002811D5FFE703989DF871
:1009C000071001F07F0101EB410100EB810090F87D
:1009D000300040F2F021C2F2000108700DE00398EF
:1009E0009DF8071001EB410100EB8100007E40F211
:1009F000F021C2F200010870FFE700208DF8060028
:100A0000FFE700E0FFE79DF8060058B9FFE703980D
:100A1000303040F2F021C2F2000102231A4600F009
:100A200041FFFFE79DF8060004B080BD82B0019051
:100A30000091012002B0704783B0019000910098AE
:100A4000808800BBFFE70098C088E0B9FFE7009806
:100A5000807800F07F000199487001988078032821
:100A600010D0FFE70198407820B1FFE701990220FC
:100A7000887003E0019901208870FFE700208DF85D
:100A80000B0004E0FFE701208DF80B00FFE79DF865
:100A90000B0003B07047000080B586B0059004914C
:100AA00001208DF80F000498817840F2F220C2F204
:100AB00000000170007801286AD8FFE70598807867
:100AC00001460291012860D0FFE70298022804D075
:100AD000FFE7029803281DD058E040F2F220C2F24E
:100AE0000000007890B1FFE70598416E4A6840F237
:100AF000F221C2F200010191097890470198007833
:100B000005990870059903208870FFE700208DF88B
:100B10000F003CE040F2F220C2F20000007890B9F1
:100B2000FFE70598416E8A6840F2F221C2F20001A7
:100B30000091097890470098007805990870059908
:100B4000022088701DE040F2F220C2F2000000781E
:100B500005990978884212D0FFE70598416E8A68A6
:100B60000178904740F2F221C2F200010878059A1C
:100B700010700598426E52680978904700E0FFE7D0
:100B8000FFE700208DF80F0001E000E0FFE7FFE73E
:100B90009DF80F0006B080BD82B00190009100204A
:100BA00002B0704780B586B00490039100208DF8A4
:100BB0000B000398007800F003000146019140B15A
:100BC000FFE7019801284ED0FFE70198022815D0D1
:100BD0004AE004988078023801280DD8FFE703988E
:100BE0004088012807D1FFE70499012008720020FE
:100BF0008DF817003DE000E0FFE736E003988088BD
:100C00008DF80B000498807803282BD1FFE79DF81E
:100C10000B0000F07F00012824DCFFE703984088E8
:100C2000F8B9FFE79DF80B00D8B1FFE79DF80B007E
:100C3000802816D0FFE704989DF80B1001F086FC81
:100C400070B1FFE704989DF80B1001F01BFB0498AE
:100C5000416ECA680399904700208DF8170008E09C
:100C6000FFE7FFE701E000E0FFE701208DF8170054
:100C7000FFE79DF8170006B080BD000080B584B086
:100C8000029001910298807801460091012808D0D5
:100C9000FFE70098022805D0FFE70098032802D05C
:100CA00014E014E013E00198007970B9FFE70198AF
:100CB00080780299496E48700298416ECA6801991D
:100CC000904700208DF80F0005E000E0FFE70120CD
:100CD0008DF80F00FFE79DF80F0004B080BD000005
:100CE00082B001900091002002B0704784B0039060
:100CF0008DF80B1001920398006EC0689DF80B10E0
:100D000050F8210000900098007801990880009820
:100D100004B0704782B00190009100980199486139
:100D200002B0704782B0019000910098019908616B
:100D300002B0704780B542F20000C4F201001021F9
:100D400003224FF4807300F001F880BD87B0069055
:100D5000059104920393002001900090059800F003
:100D60000F0001909DF81400C006002814D5FFE77D
:100D7000049804280AD1FFE7019840F0030001908D
:100D8000039A0699C86B1043C86304E0049901985C
:100D900008430190FFE7FFE70020ADF80A00FFE7F6
:100DA000BDF80A00072842D8FFE7BDF80A100398EB
:100DB000C840C007A0B3FFE7069800680090BDF8E0
:100DC0000A0081000F2000FA01F10098884300908A
:100DD0000198BDF80A10890000FA01F10098084353
:100DE00000900598282809D1FFE7BDF80A100120D6
:100DF000884003990840069948610DE00598482805
:100E000009D1FFE7BDF80A10012088400399084086
:100E100006990861FFE7FFE7009806990860FFE779
:100E2000FFE7BDF80A000130ADF80A00B8E7082076
:100E3000ADF80A00FFE7BDF80A000F2846D8FFE723
:100E4000BDF80A100398C840C007C0B3FFE7069872
:100E500040680090BDF80A006FF01F0101EB8002AE
:100E60000F2000FA02F20098904300900198BDF81C
:100E70000A2001EB820100FA01F10098084300907A
:100E80000598282809D1FFE7BDF80A1001208840FD
:100E900003990840069948610DE00598482809D152
:100EA000FFE7BDF80A100120884003990840069921
:100EB0000861FFE7FFE7009806994860FFE7FFE752
:100EC000BDF80A000130ADF80A00B4E707B070477A
:100ED00083B0029001918DF8032000208DF802006C
:100EE0008DF80200FFE79DF802009DF8031088428C
:100EF00029DAFFE70298000F092809D8FFE70298CE
:100F0000000F303001999DF8022001F8120009E02D
:100F10000299372000EB117001999DF8022001F829
:100F20001200FFE702980001029001989DF802105C
:100F300000EB410100204870FFE79DF802000130FE
:100F40008DF80200CFE703B07047000080B582B093
:100F50000020019000F0B8FAFFF7ECFE40F24030BC
:100F6000C2F20000009040F26411C2F2000140F2AF
:100F70002412C2F2000201F0F7FA00F00FF8009814
:100F800000F0F8FCFFE740F24030C2F20000807849
:100F9000032801D0FFE7F6E7FFE7FEE780B582B060
:100FA0004FF4A06000F0A4F8142002210022019266
:100FB00000F008F8019A1320012100F003F802B0B4
:100FC00080BD000080B584B08DF80F008DF80E1044
:100FD0008DF80D2000200290019000904EF60C50EC
:100FE000CEF20000006800F4E060B0F5E06F05D1DB
:100FF000FFE700200190042000904AE04EF60C50DC
:10100000CEF20000006800F4E060B0F5C06F05D1DA
:10101000FFE7012001900320009039E04EF60C50CC
:10102000CEF20000006800F4E060B0F5A06F04D1DB
:10103000FFE702200190009029E04EF60C50CEF21E
:101040000000006800F4E060B0F5806F05D1FFE7B4
:10105000032001900120009018E04EF60C50CEF2D3
:101060000000006800F4E060B0F5407F05D1FFE7C4
:10107000042001900020009007E04FF4A06000F0F1
:1010800037F8022001900090FFE7FFE7FFE7FFE756
:10109000FFE79DF80E000199C1F10401884002901C
:1010A0009DF80D000099C1F104020F21D1400140CB
:1010B00002980843029002980001029002989DF85D
:1010C0000F104EF20042CEF2000288549DF80F201D
:1010D00002F01F01012088404EF20011CEF2000103
:1010E00041EAD20121F00301086004B080BD000094
:1010F00081B0009000980021C0F2FA5108434EF6EA
:101100000C51CEF20001086001B0704782B001902E
:101110000091019800994FF68072C1F6FF7211405C
:1011200008434EF60851CEF200010860BFF34F8F1E
:1011300002B0704782B001908DF8031002B0704782
:1011400082B001908DF8031002B0704780B582B074
:1011500001908DF803100198812100F063FD019842
:10116000012100F05FFD002002B080BD80B584B099
:1011700003908DF80B10039840F24411C2F2000165
:10118000009101F11203002101914FF4A07200F0CF
:10119000D1FD009A0199039802F119034FF480726E
:1011A00000F0C8FD40F22410C2F200008169039AE9
:1011B000D165C06903998865039840F2F322C2F2B1
:1011C00000020121402300F0C7FD019804B080BD5A
:1011D00080B586B00590049101208DF80F00049829
:1011E00040780146029140B1FFE70298012813D0F0
:1011F000FFE7029802281ED02AE00598303040F21E
:101200000001C2F2000167220023019300F072FB8B
:1012100001988DF80F001CE00598303040F2A001D5
:10122000C2F2000101220023009300F063FB00984A
:101230008DF80F000DE0059840F2F322C2F2000293
:101240000121402300F088FD00208DF80F0000E010
:10125000FFE79DF80F0006B080BD000099B08DF843
:10126000630000201690119040F20671C0F608113C
:10127000099140F20121C0F20341089107900690C4
:10128000059104900391029041F20400C4F202001F
:101290000068C0F3810017901798019040B1FFE7F4
:1012A000019801280AD0FFE7019802280CD084E0B9
:1012B00041F20020C0F27A00159084E041F2002053
:1012C000C0F27A0015907EE041F20400C4F2020000
:1012D000006800F4803010901098B0F5803F2BD15A
:1012E000FFE741F22C00C4F20200006800F08040E9
:1012F0000F900F9830B9FFE741F20020C0F27A005A
:101300000C9005E046F60040C0F2DC200C90FFE7B0
:1013100041F20400C4F20200006800F400300E90B4
:101320000E98B0F5003F06D1FFE740F60010C0F27E
:101330003D000C90FFE705E040F60010C0F23D00D4
:101340000C90FFE741F20400C4F202000168C1F30F
:1013500083410D9100680001002805D5FFE70D9835
:1013600040F010000D90FFE741F20400C4F20200CB
:1013700000684000002805D5FFE70D9840F02000E8
:101380000D90FFE70D980E2804D8FFE70D98023066
:101390000D900CE00D980F2808D3FFE70D9840281A
:1013A00004D8FFE70D9801300D90FFE7FFE70C9898
:1013B0000D9900FB01F0159005E041F20020C0F20C
:1013C0007A001590FFE741F20400C4F202000168C0
:1013D000C9B209090B910B9A06A9895C0A91159962
:1013E0000A9AD14014910168C1F302210B910B9A22
:1013F00004A9895C0A9114990A9AD1401391006852
:10140000C0F3C2200B900B9902A8405C0A9014987C
:101410000A99C84012909DF8630001460091042883
:101420004ED80099DFE801F00306090C0F0015986B
:10143000169046E01498169043E01398169040E0FA
:10144000129816903DE041F2D400C4F20200006808
:10145000800718B9FFE7129811902EE041F2D400EE
:10146000C4F20200006800F00300012803D1FFE786
:101470001598119020E041F2D400C4F202000068F7
:1014800000F00300022804D1FFE74FF40040119060
:1014900011E041F2D400C4F20200006800F0030041
:1014A000032806D1FFE741F20020C0F27A00119034
:1014B00000E0FFE7FFE7FFE7FFE71198169000E085
:1014C000FFE7169819B0704780B582B00020FFF78B
:1014D000C5FE01904FF4C16000F04CF8019846F64B
:1014E0000041C0F2DC21884205D1FFE74FF48000C3
:1014F00000F054F838E001984AF20021C0F24A4165
:10150000884204D1FFE7002000F048F82BE0019862
:101510004DF60001C0F2B851884205D1FFE74FF403
:10152000400000F03BF81DE0019840F60061C0F279
:101530002771884205D1FFE74FF4000000F02EF834
:101540000FE0019847F60021C0F60321884206D13A
:10155000FFE70020C8F2400000F020F800E0FFE7BD
:10156000FFE7FFE7FFE7FFE740F2177000F002F840
:1015700002B080BD81B0ADF80200BDF8020000F0FD
:101580001F02012101FA02F3810941F20002C4F2B3
:10159000020288581843885001B0704782B0019009
:1015A00041F20401C4F2020108680090009820F49E
:1015B000400000900098019A1043086002B0704704
:1015C00080B582B001900198806E4069804702B07A
:1015D00080BD000080B586B005900598007806288B
:1015E00027D0FFE74FF2E870C1F6FF700068049063
:1015F0004FF2EC70C1F6FF70006803904FF2F0708C
:10160000C1F6FF70006802900299049808440490A3
:10161000049868B1FFE70498059902310822FFF7A2
:1016200057FC0398059912310422FFF751FCFFE79C
:1016300011E042F20010C4F202000068019001982B
:1016400040B1FFE7019805994880BDF8060005996B
:101650008880FFE7FFE706B080BD000084B000206F
:101660000390029041F20001C4F20201086840F4C4
:1016700080300860FFE703980130039041F20000DA
:10168000C4F20200006800F400300290FFE7029903
:101690000020019041B9FFE703984FF6FF71401A0F
:1016A00018BF01200190FFE70198C0070028E2D190
:1016B000FFE741F20000C4F2020000688003002846
:1016C00002D4FFE7FFE7FEE742F20001C4F20201A5
:1016D0000868042262F30200086041F21C01C4F2AF
:1016E0000201086840F08050086041F20401C4F231
:1016F000020100910868086008680860086840F402
:1017000080600860086820F440300860086840F491
:101710004030086008684FF6FF72CBF2C372104089
:10172000086008680022C4F224021043086041F2F5
:101730000001C4F20201086840F080700860FFE711
:1017400041F20000C4F2020000688001002801D4C8
:10175000FFE7F5E747F20001C4F20001086840F432
:1017600080300860FFE747F20400C4F20000006820
:10177000C003002801D4FFE7F5E747F20001C4F2F7
:101780000001086840F400300860FFE747F20400F9
:10179000C4F2000000688003002801D4FFE7F5E7E9
:1017A00041F20401C4F20201086820F0030008605D
:1017B000086840F002000860FFE741F20400C4F24C
:1017C0000200006800F00C00082801D0FFE7F4E7F1
:1017D00004B0704780B5FFF741FF80BD80B582B08F
:1017E00001900199486B896ECB6A00221146984797
:1017F00002B080BD80B582B00190019901200875CA
:101800000198426B038F002100F058FB02B080BDAD
:1018100080B582B001900199022008750198816E0F
:101820008A6A0021904702B080BD000080B582B076
:1018300001900199032008750199486B896ECB6A64
:1018400000221146984702B080BD000080B582B0EA
:1018500001900199042008750198816E8A6A00211F
:10186000904702B080BD000080B582B00190019821
:10187000002100F015FD02B080BD000083B0029091
:101880000191ADF80220ADF800300198029948604E
:10189000BDF8020002990881BDF800000299488154
:1018A00003B0704783B002900191ADF80220ADF80B
:1018B0000030019802994860BDF802000299088141
:1018C000BDF800000299488103B0704783B00290D0
:1018D0000191ADF80220ADF80030019802994860FE
:1018E000BDF8020002990881BDF800000299488104
:1018F00003B0704783B002900191ADF80220ADF8BB
:101900000030019802994860BDF8020002990881F0
:10191000BDF800000299488103B0704781B0009083
:101920000098407840F0800045F64C41C4F2000138
:10193000086001B07047000080B584B0029001914A
:101940000298807803280DD1FFE70198007940B90B
:10195000FFE70298416ECA68019990478DF80F0021
:1019600004E0FFE701208DF80F00FFE79DF80F006E
:1019700004B080BD80B582B001900198806E81680E
:101980000120884701990520887002B080BD0000C1
:1019900045F64041C4F200010120086000200860C3
:1019A00045F64442C4F20002106045F65042C4F2CB
:1019B00000021060086840F41F4008607047000093
:1019C00045F64041C4F200010120086045F644425A
:1019D000C4F200020020106003200860704700007D
:1019E00080B582B08DF807009DF80700012809D165
:1019F000FFE742F20000C4F201004FF48071FFF7EC
:101A000091F908E042F20000C4F201004FF4807145
:101A1000FFF780F9FFE702B080BD000080B582B01B
:101A200001908DF803100198816E8A6B9DF8031068
:101A3000904702B080BD000085B003908DF80B1078
:101A40008DF80A200020ADF80800ADF806000090DF
:101A50009DF80A00E0B9FFE740F29C00C2F20000E6
:101A600001689DF80B2001EB0211C9686FF39F21FB
:101A7000ADF8061000689DF80B1000EB01108168AE
:101A800046F20000C4F2000000EB410000904DE07F
:101A90009DF80A00012844D1FFE79DF80B1045F698
:101AA0000040C4F2000050F82100400600281BD579
:101AB000FFE740F29C00C2F2000001689DF80B2095
:101AC00001EB021149686FF39F21ADF80610006821
:101AD0009DF80B100901415846F20000C4F20000C5
:101AE00000EB410000901BE040F29C00C2F20000BD
:101AF00001689DF80B2001EB0211C9686FF39F216B
:101B0000ADF8061000689DF80B1000EB011081681D
:101B100046F20000C4F2000000EB41000090FFE735
:101B200003E00020ADF8120022E0FFE70020ADF84E
:101B30000800FFE7BDF80800BDF806100131B0EB62
:101B4000510F10D2FFE70098011D00910068039922
:101B50000880039802300390FFE7BDF808000130C9
:101B6000ADF80800E6E7BDF80600ADF81200FFE7A3
:101B7000BDF8120005B0704784B003908DF80B10CB
:101B8000ADF80820BDF8080050B3FFE740F29C0014
:101B9000C2F2000000689DF80B100901415846F29E
:101BA0000000C4F2000000EB410000900020019012
:101BB000FFE70198BDF808100131B0EB510F0ED2CC
:101BC000FFE70398008800990A1D009208600398B7
:101BD00002300390FFE7019801300190E9E7FFE749
:101BE000BDF8080040F29C01C2F2000109689DF8AE
:101BF0000B2001EB02114860FFE79DF80B0045F652
:101C00000041C4F2000151F8200048F6BF721040B4
:101C100080F030009DF80B2041F82200FFE704B06F
:101C20007047000080B582B001908DF803100198D4
:101C3000816E4A6A9DF80310904702B080BD000093
:101C400082B001908DF803109DF8030000F07F0032
:101C50008DF802009DF803100020B0EBD11F33D0A7
:101C6000FFE7FFE79DF8021045F60040C4F20000D0
:101C700050F821004006002813D5FFE7FFE79DF844
:101C8000020045F60041C4F2000151F8200048F678
:101C90008F72104040309DF8022041F82200FFE78B
:101CA000FFE7FFE7FFE79DF8020045F60041C4F2B9
:101CB000000151F8200048F6BF7210409DF8022044
:101CC00041F82200FFE733E0FFE79DF8021045F6F8
:101CD0000040C4F2000050F821004004002814D550
:101CE000FFE7FFE79DF8020045F60041C4F200015E
:101CF00051F8200048F68F72104000F580409DF8A2
:101D0000022041F82200FFE7FFE7FFE7FFE79DF829
:101D1000020045F60041C4F2000151F820004BF6E4
:101D20008F7210409DF8022041F82200FFE7FFE784
:101D300002B0704780B584B003908DF80B1001920B
:101D400000930398816ED1F820C09DF80B10019A82
:101D5000009BE04704B080BD80B586B005908DF84B
:101D600013100392ADF80A3005989DF8131001F096
:101D70007F0101EB410100EB8100183001900198D7
:101D80000399BDF80A200023FFF778FD0598816EBE
:101D90008A6A9DF81310904706B080BD83B0029008
:101DA00000208DF8070002993031009140F29C012B
:101DB000C2F200010B6880221A600A685060009A23
:101DC00040205080029A1832009209688860009979
:101DD0004880009840883F2810D3FFE7009840884B
:101DE00041014FF0FF3010FA81F040F4004040F222
:101DF0009C01C2F200010968C8600CE000984088AC
:101E0000013020F00100400240F29C01C2F20001CA
:101E10000968C860FFE701208DF80700FFE79DF81B
:101E20000700012817DCFFE79DF8070045F6004191
:101E3000C4F2000151F8200048F68F7290439DF8DB
:101E40000720104341F82200FFE79DF8070001300A
:101E50008DF80700E3E745F60041C4F20001086889
:101E600080B2086043F22020086045F64C41C4F27D
:101E700000018020086002990120887003B070473B
:101E800082B001908DF80310FFE79DF8030000F089
:101E90007F0045F60041C4F2000151F820004BF6E6
:101EA0008F72104080F440509DF8032002F07F02B2
:101EB00041F82200FFE702B07047000080B588B00B
:101EC00007908DF81B100592ADF812309DF81B009D
:101ED00000F07F008DF8110007989DF8111001EBBC
:101EE000410100EB810030300390BDF812000399EE
:101EF0004988884204DAFFE7BDF81200019003E048
:101F0000039840880190FFE70198ADF80A00079810
:101F1000806EC36A05989DF81110BDF80A20984795
:101F200003980599BDF80A301944BDF81220D21A59
:101F300092B2FFF7A3FC08B080BD000086B0059008
:101F40008DF8131003920293029880788DF80700A1
:101F50009DF8070000F07F008DF806000298808849
:101F6000ADF80400002000900299C97801F0030246
:101F700042F63C21C0F6000151F822109DF80630CF
:101F8000194345F60042C4F2000242F823109DF8BE
:101F90000710B0EBD11F00F08180FFE705989DF896
:101FA000061001EB410100EB810030300090BDF8DC
:101FB0000400009948809DF81300F0B9FFE70398EA
:101FC00040F29C01C2F2000109689DF8062012014E
:101FD0008850FFE79DF8060045F60041C4F2000175
:101FE00051F8200048F6BF72104080F020009DF8A4
:101FF000062041F82200FFE74FE09DF8130001287A
:1020000049D1FFE79DF8060045F60041C4F2000102
:1020100051F8200040F4807048F68F7210409DF80F
:10202000062041F82200BDF80C0040F29C01C2F2EB
:1020300000010A689DF806301B01D050BDF80E0063
:1020400009689DF8062001EB02118860FFE79DF802
:10205000060045F60041C4F2000151F8200048F6A0
:10206000BF72104080F030009DF8062041F8220039
:10207000FFE7FFE79DF8060045F60041C4F20001C6
:1020800051F820004BF68F7210409DF8062041F861
:102090002200FFE700E0FFE7FFE7F1E005989DF889
:1020A000061001EB410100EB810018300090BDF8F3
:1020B0000400009948809DF8130060B9FFE7039879
:1020C00040F29C01C2F2000109689DF8062001EB74
:1020D0000211886066E09DF81300012860D1FFE7D7
:1020E0009DF8060045F60041C4F2000151F82000B9
:1020F00040F4807048F68F7210409DF8062041F839
:102100002200FFE79DF8060045F60041C4F20001F9
:1021100051F8200048F68F72104040309DF806209C
:1021200041F82200FFE7BDF80C0040F29C01C2F22A
:1021300000010A689DF806301B01D050BDF80E0062
:1021400009689DF8062001EB02118860BDF80400C3
:102150003F2813D3FFE7BDF804104FF0FF3000EB2A
:10216000411040F4004040F29C01C2F200010968B5
:102170009DF8062001EB0211486010E0BDF8040054
:10218000013020F00100400240F29C01C2F2000147
:1021900009689DF8062001EB02114860FFE700E0A6
:1021A000FFE7FFE7BDF804003F2813D3FFE7BDF8C2
:1021B00004104FF0FF3000EB411040F4004040F2BB
:1021C0009C01C2F2000109689DF8062001EB021192
:1021D000C86010E0BDF80400013020F001004002AA
:1021E00040F29C01C2F2000109689DF8062001EB53
:1021F0000211C860FFE79DF81300A0B9FFE7FFE7F1
:102200009DF8060045F60041C4F2000151F8200097
:102210004BF68F72104080F400509DF8062041F874
:102220002200FFE72BE09DF81300012825D1FFE7EE
:10223000FFE79DF8060045F60041C4F2000151F8A1
:1022400020004BF68F7210409DF8062041F82200C6
:10225000FFE7FFE79DF8060045F60041C4F20001E4
:1022600051F8200048F6BF72104080F020009DF821
:10227000062041F82200FFE700E0FFE7FFE7FFE765
:1022800006B0704780B582B001908DF803100198B8
:10229000816E4A6B9DF80310904702B080BD00002C
:1022A00080B582B001908DF803100198816E4A6B61
:1022B0009DF80310904702B080BD000080B582B049
:1022C00001908DF803109DF8030000F07F008DF859
:1022D00002009DF803100020B0EBD11F48D0FFE7AB
:1022E00001989DF8031000F023F910283FD1FFE773
:1022F000FFE79DF8021045F60040C4F2000050F8D8
:1023000021004006002813D5FFE7FFE79DF80200F3
:1023100045F60041C4F2000151F8200048F68F72E2
:10232000104040309DF8022041F82200FFE7FFE70F
:10233000FFE701989DF8021001EB410100EB8101DC
:10234000002081F83000FFE79DF8020045F60041CB
:10235000C4F2000151F8200048F6BF72104080F02E
:1023600030009DF8022041F82200FFE7FFE748E037
:1023700001989DF8031000F0DBF8B0F5805F3FD1C5
:10238000FFE7FFE79DF8021045F60040C4F20000A9
:1023900050F821004004002814D5FFE7FFE79DF81E
:1023A000020045F60041C4F2000151F8200048F651
:1023B0008F72104000F580409DF8022041F8220005
:1023C000FFE7FFE7FFE701989DF8021001EB4101ED
:1023D00000EB810100200876FFE79DF8020045F63A
:1023E0000041C4F2000151F820004BF68F721040FA
:1023F00080F440509DF8022041F82200FFE7FFE7FB
:10240000FFE702B080BD000082B001908DF803109C
:102410009DF8030000F07F008DF802009DF8020097
:10242000D8B9FFE7FFE745F60041C4F200010868AC
:1024300048F6BF72104080F010000860FFE7FFE729
:1024400045F60041C4F2000108684BF68F72104057
:1024500080F480500860FFE742E09DF80310002000
:10246000B0EBD11F1ED0FFE701989DF8021001EBE1
:10247000410100EB8101012081F83000FFE79DF868
:10248000020045F60041C4F2000151F8200048F670
:10249000BF72104080F010009DF8022041F8220029
:1024A000FFE71CE001989DF8021001EB410100EBF1
:1024B000810101200876FFE79DF8020045F6004102
:1024C000C4F2000151F820004BF68F72104080F4E6
:1024D00080509DF8022041F82200FFE7FFE7FFE768
:1024E00002B0704784B002908DF807109DF8070085
:1024F00000F07F0145F60040C4F2000050F82100D2
:1025000000909DF807100020B0EBD11F06D0FFE728
:10251000009800F03000ADF80E0005E0009800F4DF
:102520004050ADF80E00FFE7BDF80E0004B0704754
:1025300080B582B001908DF803100198816ECA6B4E
:102540009DF80310904702B080BD000080B582B0B6
:1025500001908DF803100198816ECA6B9DF80310ED
:10256000904702B080BD000080B584B00390029116
:10257000019240F23432C2F20002082010700120B1
:1025800050704FF400715180039951600299039A81
:1025900011660199039A5166039A40F29821C2F29A
:1025A00000019166039A00211175039A40F2E141FE
:1025B000C0F600019164039A40F27141C0F6000137
:1025C000D164039A40F2F131C0F600011165039A1B
:1025D000116E4968C97901F04001490911710399E7
:1025E000C8710398806E006880470398006EC068C9
:1025F000C068FEF7EFFF04B080BD000080B582B078
:102600000190019880780199C87001990420887020
:102610000198C07920B1FFE7019800F0EFF903E0DD
:10262000019903208871FFE702B080BD80B586B0B4
:1026300045F64440C4F200000168ADF81610016888
:1026400045F64040C4F200000068084020F0FF005A
:10265000ADF8140040F23430C2F20000406804903B
:10266000BDF814000004002840F1E880FFE7FFE710
:1026700045F64440C4F200000068ADF816000004BE
:10268000002840F1DA80FFE7BDF8160000F00F00E7
:102690008DF80F00BDF81600C006002840F18480B8
:1026A000FFE79DF80F1045F60040C4F2000050F817
:1026B00021000004002876D5FFE7FFE79DF80F20F2
:1026C00045F60041C4F2000151F8220040F68F7334
:1026D000184041F82200FFE79DF80F1045F6004032
:1026E000C4F2000050F821000005002810D5FFE7D3
:1026F0009DF80F0050B9FFE704989DF80F1001EB0B
:10270000410200EB8202926C904700E035E149E023
:1027100004989DF80F1001EB410100EB8100183087
:1027200002900498806E036B029840689DF80F1029
:1027300000229847ADF80600BDF8062002994868C7
:1027400010444860BDF80620029948891044488129
:10275000029948890989884207DAFFE7BDF806002F
:1027600002994988884215DAFFE704989DF80F100E
:1027700001EB410100EB8100C06C50B1FFE7049810
:102780009DF80F1001EB410200EB8202D26C9047E2
:10279000FFE706E00498816E8A6A9DF80F10904763
:1027A000FFE7FFE7FFE747E09DF80F1045F6004021
:1027B000C4F2000050F82100000600283BD5FFE7D6
:1027C000FFE79DF80F2045F60041C4F2000151F8E3
:1027D000220048F60F73184041F82200FFE70498E2
:1027E0009DF80F1001EB410100EB810030300090AB
:1027F00000980089A8B9FFE704989DF80F1001EB35
:10280000410100EB8100006D50B1FFE704989DF895
:102810000F1001EB410200EB8202126D9047FFE7BF
:1028200008E004989DF80F10009B5A681B89FFF779
:1028300045FBFFE7FFE7FFE71AE7FFE7BDF81400F6
:10284000C004002814D5FFE745F64441C4F2000156
:102850006FF4805008600498C078049988700498D8
:10286000407A20B9FFE70498FEF7AAFEFFE7FFE7EA
:10287000BDF814000005002815D5FFE745F64040D7
:10288000C4F200000068C00600280BD4FFE70498DB
:10289000FFF7B4FE45F64441C4F200016FF4006056
:1028A0000860FFE7FFE7BDF814008005002818D591
:1028B000FFE745F64441C4F200016FF40070086080
:1028C00040F23C30C2F20000006848B1FFE740F23D
:1028D0003C30C2F200000068016804988847FFE7B6
:1028E000FFE7BDF81400C005002834D5FFE745F622
:1028F0004441C4F200016FF480700860049880794C
:1029000040B3FFE70499887901388871000600BB5D
:10291000FFE70498407A60B1FFE745F64041C4F212
:102920000001086820F01000086004990020487237
:102930000EE045F64041C4F20001086840F0100086
:102940000860049903208871049901204872FFE708
:10295000FFE7FFE7FFE7BDF81400400500280CD5AE
:10296000FFE745F64441C4F200016FF4806008605F
:102970000498816EC9698847FFE706B080BD0000F2
:1029800045F64041C4F20001086820F004000860E8
:10299000086820F0080008607047000081B00090CF
:1029A00040F23430C2F200004068007A012809D1B8
:1029B000FFE745F64041C4F20001086840F010000E
:1029C0000860FFE701B0704780B582B001900091C8
:1029D00000994A7840F26800C2F2000050F82220C4
:1029E0000198904702B080BD45F64041C4F2000115
:1029F000086840F00C0008607047000080B582B0A5
:102A000001900198806E0069804702B080BD00008F
:102A100082B001900091012002B0704702E008C826
:102A2000121F08C1002AFAD170477047002001E048
:102A300001C1121F002AFBD17047000000020000F4
:102A4000000400000000000000060000702A0008DA
:102A500000000020F0020000FC010008D02B00085C
:102A6000F0020020C80400002C2A0008000000002A
:102A700011181F674D414E5546414354555245521A
:102A80003A47494741204445564943452D3B434F2A
:102A90004D1D381F44205345543A50434C2C4D5043
:102AA0004C3B4D4F44454C3A4C61736572426561F5
:102AB0006D3F25180C454E543A476F6F6420213BFB
:102AC00049DD495645203B123B13F1081408AD057A
:102AD00014082D0A4C08A50B081A390413ED061B1F
:102AE0000899102A810819101A9128137D0C1B08C7
:102AF000E10411126016401816034712691267129A
:102B000061124412651A760C1A63080171136D1173
:102B10001B084D041AD104811A350C1A41041409FA
:102B2000022013010125A032090415020701022623
:102B300007058102402C070501071374011B20447F
:102B4000044113DC021420120132021E40E9288DD8
:102B500002391D02030122E5124412331232122DF2
:102B6000125512531242125F12501A72ED126E1A5F
:102B700074EF02617203821A0313D1031B08A904C4
:102B800013ED0C140891191B08C1041AE1041A1D55
:102B90000413E9291B0881042A9D04121D14083D11
:102BA0001F1C08411C14121E1408791B1408391A22
:102BB000140809241408BD221B08E508170403099A
:102BC00004D8022320A1142086011B20080C4100F8
:04000005080001A14D
:00000001FF
